:1000000000308A00292800000A108A100A1182078D
:100010003F3406345B344F3466346D347C340734FB
:100020007F346F342130840083130008031926289D
:100030000130F800F701F70B1B28F80B1A284A309B
:10004000F700F70B21282428800B18288A110A12A0
:10005000422803081F39830083161F149F141F159D
:100060009F1183130030860083128601A0012008AF
:100070000A3C031C442820080420A1008600FA3012
:0C008000A1001228A00A372836286300CF
:02400E00733FFE
:00000001FF
;PIC16F877
;CRC=E3F2  CREATED="11-Ara-23 10:22"
